:1000000041C07AC057C0BBC20CC354C053C052C019
:1000100051C050C04FC04EC04DC04CC04BC04AC074
:1000200049C048C047C000CDD914F13C28E5A16CB7
:1000300078B5509D89441E0355005300420074005A
:1000400069006E0079002000490052002F004C002A
:100050004300440012010101FF000008EB0302000D
:1000600004010002000109021900010100802809B1
:1000700004000001FF0000000705810008000004E3
:100080000309040011241FBECFEDCDBF10E0A0E690
:10009000B0E0E2EDF7E002C005900D92A436B107A2
:1000A000D9F710E0A4E6B0E001C01D92A93BB1076A
:1000B000E1F768C3A5CFDC019FEF8FEF660FB9F0C2
:1000C00046E2F0E0229560FF2D91E82FE227EF70E5
:1000D000929582958F70392F307F832B9F70E40F1C
:1000E000359193273170932783276A9559F7809527
:1000F00090958D939D9308950F931F932F93DF9366
:10010000CF930FB70F938299FECF82990BC082993C
:1001100009C0829907C0829905C0829903C000E492
:100120000ABFA8C0C091A100DD27CE55DF4F0BE06C
:1001300014E124E0829BE9CF3F934F936F9360B328
:1001400030E803C060B3432B4993442764712627EA
:10015000215020B32471A9F137953C3FA0F56227C7
:10016000615060B3647137953C3F98F52627215064
:10017000379520B324713C3F90F562276150379545
:100180003C3F60B36471A0F52627215037953C3F72
:10019000C8F520B324716227615037953C3FB0F514
:1001A0000A9560B37AF064712627215037953C3F59
:1001B00088F520B324716227615037953C3F10F2D7
:1001C0002DC031C048C0612720B324713F77416002
:1001D000C6CF3F77426060B364712127C7CF3F77B6
:1001E0004460612720B32471622761503795C8CFDE
:1001F0003F7748602127316060B364712627215022
:100200003795C6CF3F7740616127C1CF3F774062C6
:100210002127C4CF3F7740646127C9CF3F7740682B
:10022000212700C08FCF30E43ABF0B500195033037
:1002300090F0C01B2881233CB1F12B34A1F119812E
:100240001F774091B800141731F42936D9F02D32B8
:1002500049F0213E39F04427409364006F914F915B
:100260003F9108C0209364006F914F913F910AB76E
:1002700006FD49CF0F910FBFCF91DF912F911F91B5
:100280000F91189500919200002311F14091A00068
:100290004423F1F44093920040919E004093B800B3
:1002A000C3E9D0E018C0209164002223A1F240915C
:1002B000A000442369F40093A00020939F000091C4
:1002C000A1004BE0401B4093A100C0E6D0E002C07B
:1002D000C1E6D0E001E022B32B7E206111B31461AE
:1002E00022BB11BB14E130E830FF212722BB379538
:1002F00047954C3FC0F530FF2127379522BB4795E6
:100300004C3FA8F530FF21273795000022BB4795C9
:100310004C3F78F530FF21273795000022BB4795E9
:100320004C3F48F530FF2127699122BB379547950F
:100330004C3F18F530FF2127379522BB47954C3F9E
:1003400000F530FF21273795479522BB4C3FD8F465
:1003500030FF21273795362F479522BB4C3FA8F415
:100360000A9512F614C02127442722BBC2CF2127A9
:10037000C5CF2127CBCF2127D1CF2127442722BB8F
:10038000D7CF2127DACF2127DFCF2127E5CF2B7E3B
:1003900022BB6F914F913F9100E40ABFDF91CF9153
:1003A00011B3022F206122BB1B7EDFBFDF912F9193
:1003B000000011BB02BB1F910F91189585B7836098
:1003C00085BF8BB780648BBF789408951F93CF93BC
:1003D000DF936091A000662309F470C08091A100B2
:1003E0009927CC27DD27C81BD90BC255DF4F91E0D9
:1003F0009093650080919F008D3209F051C01E815D
:100400008F8181111FEF88818076D1F589818823C2
:1004100021F41882198292E03BC0853021F48A8150
:1004200080939E00A6C0863009F582E08093650027
:100430008B81813021F4C4E5D0E092E129C0823083
:1004400021F4C6E6D0E099E123C0833009F091C0E1
:100450008A81882321F4CFE7D0E094E019C082306C
:1004600009F087C0C6E3D0E09EE112C0883011F4E5
:10047000988304C08A3009F07CC0188291E008C0DB
:10048000CE0123D1982F8F3F19F483E0809365002C
:10049000191708F4912FD0936800C093670005C026
:1004A000635011F0CE015FD190E09093660083EC31
:1004B00080939300109292001092A000809192007D
:1004C000882309F04AC040916500442309F445C0DF
:1004D0008091930098E8892780939300109166009B
:1004E000193010F018E002C0112359F1433031F4F3
:1004F000612F84E990E011D1182F1EC02091670070
:1005000030916800413051F4F901A4E9B0E08191E3
:100510008D938E2F821B811758F4F9CFF901A4E92E
:10052000B0E0849131968D938E2F821B8117C8F392
:10053000F0936800E093670080916600811B8093D0
:100540006600612F84E990E0B6DD1D5F1093920094
:100550001350183010F4109265008AE002C08150E8
:1005600019F0849BFCCF07C010929E001092B80037
:1005700002C090E090CFDF91CF911F9108957F93BB
:100580007FB72F933F938F939F9344B555B519BE73
:100590008EB590E489278EBD7894959A4F935F939A
:1005A000EF93FF93CA01805C9F4F209169003091C7
:1005B0006A00821B930B880F892F881F990B9195D6
:1005C000982F50936A00409369004A57524C5BBD84
:1005D0004ABDF89420916B002F3F99F0243208F027
:1005E0002051809162008F3F49F410926C002223C9
:1005F00029F0E22FFF27E459FF4F92832F5F2093CA
:100600006B0078940000FF91EF915F914F91F89407
:1006100088E489BF9F918F913F912F917FBF7F91F8
:1006200018951F920F920FB60F9211248F939F93DC
:1006300019BE78949598F89490916B00892F845006
:100640008B3F60F4809162008F3F41F480916D0098
:100650008F5F80936D00915090936C0010926B00AF
:1006600078948EB58F7B8EBDF89488E489BF9F9176
:100670008F910F900FBE0F901F90189598B3907F99
:10068000982B98BBC69A8FE787BBC69880E787BB35
:10069000089598B380E288BBC69A00C086B398BB21
:1006A0008F70992708950F931F93082FF2DF182F4B
:1006B000F0DF13FDFBCF802F82958F70DFDF802F5F
:1006C0008F70DCDF1F910F910895FC0181818823D9
:1006D00009F1813031F410926C008FEF8093620049
:1006E00017C0823071F4F89480916C00882329F04F
:1006F0008481809362008FEF02C0108281E0789441
:100700000AC0843111F4C49803C0853109F4C49A35
:1007100080E001C088E09927089530916C003D5F2A
:1007200020916200DC0190E017C0231768F0F89474
:1007300080916B00882319F08FEF80936B008FEF0F
:100740008093620078940CC0E22FFF27E459FF4F9A
:1007500080818D939F5F2F5F961739F720936200FA
:10076000892F992708951F93CF93DF93EC01162FBC
:1007700003C0899198DF11501123D9F7DF91CF91F0
:100780001F910895939A8B9A80E787BB18BA83E0EC
:1007900075DF90EF00C09A95E9F78A95D1F783E06D
:1007A0006DDF90EF00C09A95E9F78A95D1F782E363
:1007B0007ADF88E278DF81E076DF86E074DF8CE044
:1007C00072DFFCDD8D9A82E88EBD88E489BFFEDD94
:0207D000FECF5A
:0407D200D25AFF00F8
:00000001FF
