:1000000032C064C048C047C046C045C044C043C0B9
:1000100042C041C040C03FC03EC03DC03CC03BC0EC
:100020003AC039C038C0180355005300420074006C
:1000300069006E0079002000530050004900120151
:100040000101FF00000881179F0C0401000200015C
:100050000902120001010080320904000000FF00C3
:1000600000000403090411241FBECFEDCDBF10E032
:10007000A0E6B0E0E6EEF7E002C005900D92A236F1
:10008000B107D9F710E0A2E6B0E001C01D92AE3989
:10009000B107E1F7A3C3B4CFDC019FEF8FEF662375
:1000A00081F040EA31E02D910894279508F48327E8
:1000B0009695879510F4942783272695B9F76A9526
:1000C00091F7809590958D939D9308950F931F932D
:1000D0002F93DF93CF930FB70F938299FECF82991F
:1000E0000BC0829909C0829907C0829905C0829984
:1000F00003C000E40ABFA8C0C0918600DD27C9572D
:10010000DF4F0BE014E124E0829BE9CF3F934F9354
:100110006F9360B330E803C060B3432B4993442727
:1001200064712627215020B32471A9F137953C3FF3
:10013000A0F56227615060B3647137953C3F98F534
:1001400026272150379520B324713C3F90F5622734
:10015000615037953C3F60B36471A0F5262721506C
:1001600037953C3FC8F520B324716227615037951D
:100170003C3FB0F50A9560B37AF0647126272150B0
:1001800037953C3F88F520B324716227615037953D
:100190003C3F10F22DC031C048C0612720B324710C
:1001A0003F774160C6CF3F77426060B364712127DB
:1001B000C7CF3F774460612720B324716227615025
:1001C0003795C8CF3F7748602127316060B36471AD
:1001D000262721503795C6CF3F7740616127C1CF91
:1001E0003F7740622127C4CF3F7740646127C9CF62
:1001F0003F774068212700C08FCF30E43ABF0B50D3
:100200000195033090F0C01B2881233CB1F12B34C1
:10021000A1F119811F7740919D00141731F42936FF
:10022000D9F02D3249F0213E39F044274093620045
:100230006F914F913F9108C0209362006F914F9151
:100240003F910AB706FD49CF0F910FBFCF91DF91C4
:100250002F911F910F91189500917700002311F1B4
:10026000409185004423F1F440937700409183004E
:1002700040939D00C8E7D0E018C02091620022237F
:10028000A1F240918500442369F4009385002093F6
:100290008400009186004BE0401B40938600C0E63E
:1002A000D0E002C0C1E6D0E001E022B32B7E2061A5
:1002B00011B3146122BB11BB14E130E830FF2127D8
:1002C00022BB379547954C3FC0F530FF2127379526
:1002D00022BB47954C3FA8F530FF212737950000FA
:1002E00022BB47954C3F78F530FF2127379500001A
:1002F00022BB47954C3F48F530FF2127699122BB2F
:10030000379547954C3F18F530FF2127379522BB8D
:1003100047954C3F00F530FF21273795479522BB85
:100320004C3FD8F430FF21273795362F479522BB15
:100330004C3FA8F40A9512F614C02127442722BB8B
:10034000C2CF2127C5CF2127CBCF2127D1CF21272E
:10035000442722BBD7CF2127DACF2127DFCF212780
:10036000E5CF2B7E22BB6F914F913F9100E40ABFF6
:10037000DF91CF9111B3022F206122BB1B7EDFBF23
:10038000DF912F91000011BB02BB1F910F911895B7
:1003900085B7836085BF8BB780648BBF78940895E1
:1003A0001F93CF93DF9360918500662309F46FC09C
:1003B000809186009927CC27DD27C81BD90BCD5605
:1003C000DF4F91E090936300809184008D3209F0BB
:1003D00050C01E818F8181111FEF88818076C9F501
:1003E0008981882321F41882198292E03AC08530ED
:1003F00021F48A8180938300A5C0863001F582E0D4
:10040000809363008B81813019F4CEE3D0E004C087
:10041000823021F4C0E5D0E092E123C0833009F0BE
:1004200091C08A81882321F4C2E6D0E094E019C00B
:10043000823009F087C0C6E2D0E098E112C088306F
:1004400011F4988304C08A3009F07CC0188291E0CE
:1004500008C0CE01D1D0982F8F3F19F483E080934C
:100460006300191708F4912FD0936600C0936500BC
:1004700005C0635011F0CE0150D190E0909364001C
:1004800083EC809378001092770010928500809121
:100490007700882309F04AC040916300442309F49F
:1004A00045C08091780098E8892780937800109162
:1004B0006400193010F018E002C0112359F14330E4
:1004C00031F4612F89E790E012D1182F1EC02091DE
:1004D000650030916600413051F4F901A9E7B0E0C0
:1004E00081918D938E2F821B811758F4F9CFF901DA
:1004F000A9E7B0E0849131968D938E2F821B8117EE
:10050000C8F3F0936600E093650080916400811B5E
:1005100080936400612F89E790E0BEDD1D5F10933A
:1005200077001350183010F4109263008AE002C074
:10053000815019F0849BFCCF07C010928300109269
:100540009D0002C090E090CFDF91CF911F91089560
:10055000DC01FB019091670060E07D9140E050E894
:1005600020E030E0852F872309F0C79A092E00C0CC
:1005700000000A94E1F7C69A092E00C000000A9410
:10058000E1F7440F83994F5FC798C69856952F5F40
:100590003F4F2830310531F740836F5F643011F0F1
:1005A0003196DBCF089520916A0030916B002F5F68
:1005B0003F4F30936B0020936A0021503040809170
:1005C0006E0087FF02C0220F331F80936F0020FF51
:1005D00003C0886080936F00C901892F9927869591
:1005E00080937000369527952093710063E770E043
:1005F0008FE690E0ADDF0895CF93DF93FC0131816A
:10060000332319F488E090E06FC05481A52FBB27F5
:10061000313029F48C91808381E090E065C0428183
:10062000323011F44C935EC0EC012296242F2770D7
:1006300081E090E0982F01C0990F2A95EAF73330B6
:1006400021F48C919095982304C0343021F48C913E
:10065000982B9C9347C0353059F44093670055233D
:1006600011F09FE201C09FE08FEF87BB98BB3AC0BB
:10067000363021F4C59A18BA17BA34C088B3882323
:1006800089F1373031F4BF01CE0162DF84E090E0C0
:100690002BC0383031F44093680083818093690027
:1006A00021C08481958190936B0080936A003930DA
:1006B00011F480E203C03B3031F480EA80936E0095
:1006C0008FEF90E011C08281938190936D008093B1
:1006D0006C003A3011F480E403C03C3019F480EC33
:1006E00080936E0080E090E0DF91CF9108950F93AA
:1006F0001F93CF93DF93062FEC0110E005C053DF6B
:100700008091760089931F5F1017C9F7802F992772
:10071000DF91CF911F910F9108954F925F926F9249
:100720007F928F929F92AF92BF92CF92DF92EF9281
:10073000FF920F931F93CF93DF93462EA0906C00F0
:10074000B0906D0050906800C090690020916700E3
:10075000E22EFF24E5E0EE0CFF1CEA95E1F7EC0148
:10076000DD2473E7672E70E0772E6FE6862E60E05B
:10077000962E21C088818093720015DF80916F00D2
:1007800090E6892780936F0000E010E00FC0B3016E
:10079000C401DEDE9091760080917200981721F4FA
:1007A000951511F09C1529F40E0D1F1D0A151B053A
:1007B00070F3D3942196D414E9F6DF91CF911F9171
:1007C0000F91FF90EF90DF90CF90BF90AF909F90F0
:1007D0008F907F906F905F904F90089583E481BBDE
:0607E000D7DDDEDDFECFD7
:0207E600D25AE5
:00000001FF
